:02000002B0004C
:1040000000400B00F0C10B00000006000C00050290
:084010000401E50C00000000B2
:04401800A4A80B004D
:1040200009480A49884208B505D0094A824202D0A7
:10403000121A04F014FC0748074A0021121A04F06F
:104040001CFC014808BD00BF08E40320E8BF0B00CA
:10405000E8E50320E8E50320EDE7032070B5074E0F
:10406000074C03F09FFCA41BA4080025AC4200D120
:1040700070BD56F8043B98470135F7E794BF0B0035
:10408000B8BF0B0000F0FCBC08B500F04DFEBDE869
:10409000084003F03FBC02F011BB02F00FBB02F07E
:1040A00015BB000008B5034A03490C2002F05AFA78
:1040B000FEE700BFE5610B00B8A80B000078B0FA7E
:1040C00080F04009704701230370704708B502F083
:1040D00091F8034B1860BDE8084002F07FBA00BFBA
:1040E00028E7032003682BB1406883422CBF0020DF
:1040F000012070471846704710B50446FFF7F2FFDD
:1041000020B12068BDE8104004F09EBB9FED020B7B
:1041100010BD00BFAFF300800000000000000000F1
:1041200010B50446FFF7DEFF20B12068BDE810405F
:1041300004F08DBB10BD38B50446FFF7D3FF30B196
:104140002568284604F0DAFB013005442560204646
:1041500038BDF8B5044647680D4621B903687A1C96
:104160004260D955F8BD084604F0C8FBA368461C58
:10417000F2199A42F6D8206832462946384404F0AB
:104180006EFB606830446060ECE7000038B50446C0
:104190000B46D0E901012568044A091A284402F0B7
:1041A000A5FA636801300344636038BDCDA80B00F5
:1041B00038B504460B46D0E901012568044A091ABE
:1041C000284402F093FA636801300344636038BD09
:1041D000D0A80B000000000010B52DED068B48485C
:1041E00082B00C4601F0B8FB454800230361012171
:1041F00001F0F9F9D4E9002313449A42CDE90023F0
:1042000065D26846FFF778FF6846B0EE40AAF0EE48
:1042100060AAFFF790FFD4E90032134402689A4283
:1042200060D26846FFF768FF6846B0EE409AF0EE4D
:10423000609AFFF780FFD4E90032134402689A4283
:1042400057D26846FFF758FF6846B0EE408AF0EE56
:10425000608AFFF770FFD4E90032134402689A4283
:1042600002D26846FFF748FF2649254802F09DFC28
:104270002549234802F086FCB0EE4A0AF0EE6A0AAD
:1042800007211F4802F085FD20491D4802F07AFCF5
:10429000B0EE490AF0EE690A0721194802F079FDEB
:1042A0001B49174802F06EFCB0EE480AF0EE680AAF
:1042B0000221134802F06DFD114802F06AFC10481B
:1042C00002B0BDEC068BBDE8104001F0B3BD9FED20
:1042D0000A8BB0EE489AF0EE689AB0EE48AAF0EE7B
:1042E00068AAC1E79FED048BB0EE489AF0EE689A99
:1042F000BAE79FED018BB7E7000000000000000067
:1043000044E60320D4A80B00E5A80B00EBA80B00A3
:10431000F1A80B0000000000F8B50F2003F0EFFB40
:10432000C11703F03FFF30A3D3E9002303F070FF70
:104330002FA3D3E9002304F095F8254B254D002247
:1043400003F0AEFD0022244B03F062FF0646284630
:104350000F4601F001FB0023022128462B6101F0EA
:1043600042F919A3D3E900233046394603F050FF40
:104370001A4B002203F096FD04F0FAF947EC106B9B
:1043800004460221284602F001FD1549284602F0A4
:104390000CFC002C14DA2D21284602F0F7FB6142B8
:1043A0000A220C4802F00BFC0E490A4802F0EAFB14
:1043B000084801F03FFDBDE8F840C82002F0C6B94A
:1043C0002146EDE7AFF30080CDCCCCCCCCCCFC3F8C
:1043D0000000E03F44E60320000059400000404058
:1043E000FCA80B00FEA80B006666666666660A40BF
:1043F0000000000000FEAF4008B5002343770068CE
:1044000003F0EAF8BDE8084001F0B6BE2DE9F0433C
:104410008F188FB0B942CDE90517064689469046F8
:1044200080F0C28005A80D88FFF785FE0368BB42B7
:1044300080F0BA8005980378412B49D1013004F00F
:1044400006FA052837DDFF2447F276239D4200F067
:10445000D38041D847F261239D4200F0A88047F203
:1044600064239D426BD046F670539D4241D1784DF6
:10447000784EDFF8F4810598B84280F09580037893
:10448000412B4BD1013004F0E2F9052839DDFF243E
:1044900005A8FFF750FEDDF814902946484604F0C1
:1044A00023FA014600283DD1204603F0EBFA05A887
:1044B000FFF741FEDFE70598013004F0C8F9002856
:1044C000C1DB0598013004F0C2F90E30C4B2BBE77D
:1044D00005A8FFF725FEF9E747F264739D424FD028
:1044E00047F276739D4200F0978047F261739D42D8
:1044F0006FD00023CDE9013302220092728B19465E
:104500003AE00598013004F0A2F90028BFDB0598D5
:10451000013004F09CF90E30C4B2B9E705A8FFF7EA
:10452000FFFDF9E73146484604F0DEF928B141467F
:10453000484604F0D9F90028B9D10121B4E70AAB03
:104540004549079307A810230025CDE90853FFF735
:1045500000FE07A82146FFF719FE204603F0BCFA2B
:10456000014607A8FFF724FE089BCDE90155013B52
:104570000093079B2A461421304600F0F7FA13E017
:1045800005A8FFF7D8FD03689F420DD9A4B2012109
:10459000204603F077FA05A8FFF7C2FD011E18BFF9
:1045A0000121204603F07FFA0FB0BDE8F0830AAB8B
:1045B000079307A8102329490025CDE90853FFF7E1
:1045C000C8FD07A82146FFF7E1FD204603F097FA52
:1045D000C6E705A8FFF7AFFD03689F42E4D9A4B280
:1045E0000121204603F04EFA05A8FFF799FD014688
:1045F000204603F09BFAD7E720468DF8284001F0CB
:10460000BDFD03460AA823B1154A934201D098473D
:10461000CAE701F0AFFDC7E705A8FFF78CFD059BD2
:104620008DF81C40A3EB0901A8EB01012046CDE960
:104630000A310C9101F0ACFD03460AA907A823B189
:10464000084A934201D09847AEE701F094FDABE7EA
:1046500000A90B0003A90B000BA90B000EA90B006E
:1046600075610B0077610B0007A90B002DE9F04184
:104670008CB004AF044605220068391D02F093FC9B
:1046800098B3052804D000202037BD46BDE8F0814E
:10469000B7F805305BBA9AB2A7F80530B7F807301B
:1046A0005BBA1FFA83F8A7F80730002AEBD03B79F2
:1046B00023BB01F05DFD0246E060607FB7F8073084
:1046C000C0B9B7F80510012914D1092B0FD0C82B98
:1046D00001D0042BD8D1012562612046657700F016
:1046E000F3FAFFF7F3FC01F047FD0120CCE70323C9
:1046F0006377C9E7581F18BF0120C5E7B8F5806F79
:1047000003D92046FFF778FEEFE708F108036E466D
:10471000DB08A6EBC3039D4604AD2068424629464C
:1047200002F041FC80454FF000007FD1B7F8073020
:10473000E85401F01DFD3B79E060142B00F0A580EA
:1047400048D80F2B00F0A18007D8022B48D0062BA9
:1047500051D02046FFF750FE58E0112BF9D100232D
:104760003B70B7F807302B449D42C7E903534DD245
:1047700007F10C00D5F80080FFF7DDFCFB68B7F807
:1047800007105D1B4D1BC7E905357B68FD61C3F351
:104790000F236383634B984500F0BE8000F28B804B
:1047A000A3F57F236FF400721344984500F09C80BA
:1047B00078D8A3F50033063B984500F09B8003F5BD
:1047C0000033033398456AD107F11401384601F0EC
:1047D000D2FC64E0292B1BD0372B17D01D2BB8D16E
:1047E000637F43B901236377204600F06DFAFFF73A
:1047F0006DFC01F0C1FC0023C821B7F80520009131
:10480000CDE901331946204600F0B0F901200DE052
:10481000A3681BB9402001F051FFA060B7F80780E2
:10482000A8444545C7E9055802D30020B5462BE703
:1048300040222946A06804F07DF8A368002283F88E
:104840003F2007F11400FFF776FC036898451AD95A
:1048500007F11400FFF746FC10B1786903F0FBFF85
:1048600085B2206802F0B8FE2368A2685A631D87EB
:104870000023637701F07CFCA0F59C500838C4E964
:1048800003006061C2E75025EBE77B68B7F80720BB
:10489000C3F30F23638329462046FFF7B7FD0023A8
:1048A0006383B3E7204B9845F9D107F114013846EB
:1048B00001F061FCF3E71D4B984521D003F19F63A4
:1048C00003F5003303F5807398451FD003F16E4361
:1048D00003F5302303F586739845E0D107F1140101
:1048E000384601F048FCDAE707F11401384601F0D8
:1048F00042FCD4E707F11401384601F03CFCCEE756
:1049000007F11401384601F036FCC8E707F114013D
:10491000384601F030FCC2E707F11401384601F0D7
:104920002AFCBCE7766673006462670061636F6EA1
:104930002DE9F04104468CB00D46FFF7C7FB637FBD
:10494000022B1ED0237F628B0133DBB22377AAB9FF
:10495000022B13D8206802F007FDA8B125B9206802
:1049600002F0E0FD00280FDD2046FFF77FFE002863
:10497000F5D1206802F030FE01F0FEFB237F013B01
:1049800023770CB0BDE8F08101F0F2FB054620680A
:1049900002F0EAFC677F012F064624D120B9656149
:1049A0002046FFF729FDE9E7E3684FF21862EB1AAA
:1049B0009342F5D84AF6C872934203D82369EB1A9A
:1049C0009342DBD9636941F27072EB1A9342D5D9F5
:1049D0000023CDE9013300931A460621204600F05A
:1049E000C5F86561CAE7002FC8D16369EB1A40B109
:1049F00041F270729342C1D9206802F0EDFD6777F1
:104A0000BCE741F288329342B8D9206802F0E4FD55
:104A1000D4F800C0DCF834E0BCF83880BEF1000FF8
:104A20001BD0334642467146604602F01FFC012807
:104A3000D7D16368059301251846258303F05EFFEF
:104A40000022CDE90122059B00902A461D21204627
:104A500000F08CF82369636190E7084B06930CF132
:104A600020070FCF07AE0FC63B6833704246734630
:104A700006A9604602F0DAFCD9E700BF60B90B0076
:104A80002DE9F0413648374D94B001F00FFB344822
:104A900000F062FF0121324800F0A5FD30484FF0E0
:104AA00001134FF000084361C0F8108001F0C2F913
:104AB0004146022002F0E6FFA223AC22A721009388
:104AC00002A8EA2301F060FF03AC40F6B83001F021
:104AD0004DFB0FCC09AF0FC723683B70224B6B60B7
:104AE00001F046FBA0F59C5008380DF1240CC5E9F7
:104AF00003006861BCE80F000FAE0FC62C683B686E
:104B000033700FAF41F6907323870FCFC4F8348012
:104B100020340FC43368237044F24F66286802F0D3
:104B20005BFD85F81D8001F023FB04466B7F012BA4
:104B30000CD001F01DFB001BB04204D80021284618
:104B4000FFF7F6FEF2E76B7F012BE7D102F05CFE88
:104B50004FF4165114B0BDE8F04102F049BE00BF59
:104B600044E60320E8E5032011A90B002DE9F04FEE
:104B700083B000AF044600683D6B884616469946F0
:104B8000EB4602F0F1FB00287FD0B8F11D0F04D8EE
:104B90004C4B23FA08F3DB0702D4637F012B74D15B
:104BA00046B9668B36B9238B01339BB2002B71D08B
:104BB0002383268BA8F10C03082B16D8D4E90323F2
:104BC000934238BF134603F1420A01F0D1FAAAEB2F
:104BD0000000002860DB00212046FFF7A9FE01F05D
:104BE000C7FAAAEB00000028F5DAB9F1000F5AD095
:104BF0006B1D7A6B002ABA6B08BF002203EB020A16
:104C00000AF1070323F00703ADEB030DBB6BC7F8F5
:104C100004D0EA18C2F3072376BA43EA02238DF8D8
:104C20000080ADF80160ADF80330B9F1000F3CD061
:104C3000002D3AD02A4649460DF1050003F00FFE3B
:104C4000681D7B6B3BB1BB6B2BB11A467B68796BE4
:104C5000184403F004FE002555452AD2AAEB0502AC
:104C60007B682068B2F5806F28BF4FF480625919C5
:104C700002F02DFA0646002001F078FABEB920684D
:104C800002F0AAFC667701F077FA0C37DD46BD46E4
:104C9000BDE8F08F01238BE7217F0029A5D12046B5
:104CA000FFF746FEA1E70523A3E70520C9E7354442
:104CB000D2E703D02046FFF79FFBE6E701F058FA62
:104CC0002061E2E74500002000B595B004AB00226A
:104CD00001934F2300930292034B1121FFF746FFEC
:104CE00015B05DF804FB00BF65A90B0030B5ADF24F
:104CF000244D08AB00240546059305A84FF48063B6
:104D00000968CDE90643FFF724FA069B013B0093AF
:104D1000CDE90144059B22460E212846FFF726FFD8
:104D20000DF2244D30BD00001FB5274C204601F088
:104D3000E6F9204601F0FCF9F0B12449684602F09A
:104D400092F969462248FFF7D1FF204600F004FEA1
:104D5000002323611F49204601F027FF00992046C8
:104D600001F010FF204601F065F841F2883001F0B3
:104D7000EDFC684602F02CF91348174C01F0E2F9FB
:104D800020B101232370154B00221A700E4801F048
:104D9000E3F958B100232370104B01221A700C481C
:104DA000002104B0BDE81040FFF7C2BD237823B155
:104DB00004B0BDE81040FFF7AFBA084B1B78002BDA
:104DC000EDD104B010BD00BF44E6032032A90B00B2
:104DD000E8E5032052A90B0008E40320B4E6032011
:104DE00010B50F4C0021012001F0DCFB204602F041
:104DF0003DFC04F11C0001F083FD0A4A0A4800232F
:104E0000C2E90043C2E90233C2E9043393619383E8
:104E1000636323870721BDE8104001F019B900BF83
:104E200008E60320E8E5032044E603202DE9F04FDF
:104E300085B01F46BDF93880BDF83C30A8EB0209AB
:104E4000A7EB010AB9F1000FB8BFC9F10009BAF127
:104E5000000FB8BFCAF1000AD14583460C4615467B
:104E600004DD3A462C4647460D469046BC4205DDD9
:104E70002A464546904622463C4617463E1BB2B25D
:104E80000092A8EB050282EAE271A1EBE271C6F39F
:104E9000C03202FA86F64545B4BF01224FF0FF3218
:104EA000019176100292BC421CDCDBF800200393D7
:104EB000D145D2F81880C7BF294622462A46214646
:104EC0005846C047019A039BB61AB1B236B2002EBB
:104ED00005DA029A1544009A56182DB236B20134FA
:104EE00024B2E0E705B0BDE8F08F704710B4046865
:104EF0002469A4465DF8044B604730B40468BDF8EB
:104F000008500295A46BA44630BC604730B40468D6
:104F1000BDF808500295E46BA44630BC604770B4FD
:104F2000BDF90C50BDF810600468CDE90356246C3F
:104F3000A44670BC60472DE9F3411C460368BDF8E8
:104F400020805B6905461646013C34440F4624B276
:104F500098472B68CDF8048000949C6A28463B460D
:104F600032463946A0472B68DB6A284602B0BDE8C6
:104F7000F04118472DE9F3411D460368BDF8208034
:104F80005B69044617460E469847CDE900782268CB
:104F90006B1E3344956A20461BB23A463146A847F9
:104FA0002368DB6A204602B0BDE8F04118472DE9CE
:104FB000F3471E460368BDF928905B69BDF82C8055
:104FC0000C460546174698472644B4422B680BDA30
:104FD000CDF80080D3F820A021464B463A4628461B
:104FE0000134D04724B2F0E7DB6A284602B0BDE8BE
:104FF000F047184713B502680191B0F90E100091FF
:10500000146CB0F90C3000221146A04702B010BD5C
:105010002DE9F74399421646BDF92870BDF82C904A
:10502000026880460D461C4613D1BE42C8BF3346B7
:10503000CDF82890C4BF3E461F467B1C946B9B1B3B
:105040001BB2324629464046A44603B0BDE8F043B1
:105050006047BE420AD19942C2BF0B4625461C4654
:10506000631CCDF82890D46B5B1BE9E75369984724
:10507000CDE90079D8F8003040469F6A3246234691
:105080002946B847D8F80030DB6A404603B0BDE88F
:10509000F04318472DE9F3471D460368BDF82C80FF
:1050A0005B69BDF9289004460F4616469847236869
:1050B000CDF80080D3F824A032462B46394620464E
:1050C000D0472368CDF8008009F1FF323244D3F88D
:1050D00024A039462B46204612B2D0472368CDF88B
:1050E0000080D3F820A032464B4639462046D047B0
:1050F0006B1ED9192368CDF800801D6A20464B46E7
:10510000324609B2A8472368DB6A204602B0BDE8F0
:10511000F0471847704701F00303B0F90A2083767F
:10512000C907B0F9083059BF8381C2818281C38128
:105130007047000030B54281C281074A074D0181A6
:10514000002481814FF0FF31C0E905124460056001
:1051500004610477046230BD01010001C0AE0B00A0
:105160002DE9F04F89B0CDE902120268BDF94880FF
:105170000493BDF94C3052690593BDF850A0044624
:10518000904718F107024FF0000648BF08F10E02E1
:105190004FEAE20B01963546039B019ABDF90410D4
:1051A0009A18059B8B4212B227DD049B33444FF0C3
:1051B000000906930FFA89F080451FFA89F117DD7F
:1051C0004F0705BF069BC0106D001D5C18BFEDB2F8
:1051D0002B060AD5029B206807921944836909B2FD
:1051E0001F4620465346B847079A09F10109E1E7EF
:1051F000019B013301935E44CEE72368DB6A2046BE
:1052000009B0BDE8F04F18472DE9F04F2DED028BA6
:1052100091B01646026ABDF874809DF878509DF8EA
:105220007C4003911F46BDF8703004938346002AEA
:1052300040F0C580B0F90C308B4240F34C81B0F99E
:105240000E30B34240F34781062313FB0513002BB6
:1052500040F3418106EBC403002B40F33C81037F04
:105260001BB9AF2F84BF0137FFB2DBF800305846BF
:105270005B6998470522099200220592984A07EB3C
:105280008703D3180C93B3B20693059A0C9B9B5CCF
:105290000793ABB20B93BDF80C300893039B02FB52
:1052A00005F919FA83F90FFA89F308EE103A082381
:1052B0000A93039B02EB030A4FF000090FFA8AFAE4
:1052C000079ADBF80030D20752D5012D1FFA89F278
:1052D0003ED1012C3CD19B6906991F46049B0A4490
:1052E00012B251465846B84709F101034FFA83F903
:1052F000079B5B0807930A9B013B13F0FF030A938C
:10530000DED1059F01377BB20593099B013B13F06A
:10531000FF030993B9D1049B43450FD0012DDBF85E
:1053200000303BD1012C39D10899CDF800800531EE
:105330001C6A3246082309B25846A047DBF8003001
:10534000DB6A584611B0BDEC028BBDE8F04F184740
:10535000069914FB02F20A44049901910094DB6956
:1053600018EE101A1F4612B22B465846B847BBE734
:10537000049A4245B8D0012D1FFA89F207D1012CB9
:1053800005D19B6906991F460A444346A8E706993A
:10539000CDF8048014FB02F20A44DFE70B9ACDF843
:1053A000048002EB8201089AE4000A44114600944A
:1053B000DC6932462B4609B25846A047BEE7137A4D
:1053C000516812680B92FF1AFFB201EBC70331F864
:1053D000372006929A780992DA780C92012D93F987
:1053E000052093F906A00A9201D8012C57D9BDF9DE
:1053F000283008930FFA8AF30793DBF800305846F9
:105400005B699847B3B24FF000080E931AFA86F31F
:10541000C14647460F930C9B9F428FD2079B0E9A23
:105420003B4403FB0423002205920F9A1BB202EBBC
:10543000070A08EE103A0FFA8AFA4346099A0599C4
:10544000914241D25A1CD2B25B070D9207D1069B02
:1054500006990B9A01339BB212F80190069319F04A
:10546000800F12D0012DDBF80030BDF80C101AD1DE
:10547000012C18D10A9A9B691144059A11441E46C1
:105480005246049B09B25846B047059E0136F3B216
:105490004FEA490905935FFA89F90D9BCEE700238E
:1054A000CDE90733A9E70598089A024402FB0511E4
:1054B000049ACDE90042DB6918EE102A1E4609B2B3
:1054C0002B465846B047E0E7099B013798445FFAFE
:1054D00088F8FFB29FE711B0BDEC028BBDE8F08FFA
:1054E000B6A90B00F0B5026A85B004460B46002A47
:1054F00034D10A2908D1438A0282427E03EBC203D7
:105500006382012005B0F0BD0D29FAD0E17E007E56
:10551000657E71B1B4F91060062111FB0061B4F928
:105520000C60B142C1BFB4F91210228201EBC50276
:105530006282E28A0192A28A0092CDE90205B4F960
:105540001220B4F910102046FFF75EFE237E228A57
:1055500003EB430302EB43032382D2E70A2907D17B
:1055600000230382417E927A438A01FB0233C7E71C
:105570000D29C6D0157AA942C3D3517A9942C0D316
:1055800051685D1BEDB201EBC505A87828B3E97839
:1055900019B3E17E267E677E91B195F90510084426
:1055A000B4F9101006FB0011B4F90C00814207DDBC
:1055B00000202082B4F91210927A02FB0712628254
:1055C000E28A0192A28A0092CDE90267B4F9122020
:1055D000B4F910102046FFF717FE2979227E238A9E
:1055E00001FB0233B8E7012938BF0121017641767A
:1055F0007047704710B510210446FEF750FD204655
:1056000010BD0EB403B503AB002153F8042B019376
:1056100001F0CAFB02B05DF804EB03B07047000074
:1056200073B5044608462279A36832B1A3B90B4981
:1056300002B0BDE8704001F0A5BA094A267B094DC9
:105640000949647B012E18BF2946CDE9001407499A
:10565000FFF7D7FF02B070BD054AEFE721AF0B009F
:10566000FBA80B001DAF0B0019AF0B0037AF0B00F1
:1056700010AF0B0010B5044B03600446C06A08B1BC
:1056800001F024F8204610BD10B40B0010B50446FC
:10569000FFF7F0FF20465021FEF701FD204610BD28
:1056A000002910B54BDBB0F90C408C4247DD002AD5
:1056B00045DBB0F90E40944241DD847E022C1FD0C0
:1056C000032C26D0012C04D10489D24314440A4669
:1056D00021B2012B23D0022B32D083BB002A1346E8
:1056E0000489C06AB8BFD31DDB1013FB041102F09C
:1056F000070201239340425C22EA030242541EE067
:105700000489013C611A4489D243224409B212B28D
:10571000DFE74489013C641A114622B2D9E7002A26
:1057200004891346B8BFD31DDB1013FB0411C36AF1
:1057300002F0070001228240585C02435A5410BD17
:10574000002A13460489C06AB8BFD31DDB1013FBBF
:10575000041102F00702012303FA02F2435C5A40EB
:10576000CCE7000070B504461D460026FFF7E2FCBA
:10577000114B2360666215B902F016FA0546FF2345
:1057800084F8333084F836309DF9103084F837309F
:105790000A4BA363012384F83C30059BA3644FF6B6
:1057A000FF72069BA286C4E90A562664A4F84460E8
:1057B000E364204670BD00BF10B40B005CAF0B006B
:1057C000F8B50446806A0D4690B194F9301001F0A6
:1057D00053F8A06A036800219B689847A06A036891
:1057E00029469B689847A06ABDE8F84001F04BB88D
:1057F00094F93530014698B202F055F9606A20B14B
:105800002946BDE8F84001F0B3BB0826802794F98B
:10581000330005EA070180B202F045F994F934003B
:10582000012180B202F03FF994F93400002180B2E6
:1058300002F039F9013E4FEA5707E8D1F8BD38B513
:105840000446806A0D4680B1A16C01F007F8002D76
:10585000204614BFA721A621FFF7B2FFA06A88B196
:10586000E16CBDE8384000F0F9BF606A18B104F19E
:10587000380101F00FFB94F93600002180B202F0EC
:1058800012F9E4E794F93600012180B202F00BF935
:10589000606A18B1BDE8384001F0E2BA38BD2DE9C0
:1058A000F8430446806A0D468F1840B394F93010CF
:1058B00000F0E2FFA06A036800219B689847012678
:1058C000AF42A06A17D01F2E0CD900F0DCFF94F96C
:1058D0003010A06A00F0D0FFA06A036800219B6826
:1058E00098470126A06A15F8011B036801369B68DA
:1058F0009847F6B2E4E7BDE8F84300F0C4BF94F976
:105900003530014698B202F0CEF8BD4222D0606A2E
:1059100015F8019B18B1494601F02AFBF5E7082666
:105920004FF0800894F9330009EA080180B202F0D0
:10593000BAF894F93400012180B202F0B4F894F975
:105940003400002180B202F0AEF8013E4FEA580860
:10595000E8D1DAE7BDE8F883B0F90A30DA1D48BFCC
:1059600003F10E02B0F90830C06AD2105A43002188
:1059700002F083BF2DE9FF411E46C36A9DF82880CF
:1059800004460F461546C3B12046FFF7E5FFB4F9BC
:105990000A00B4F90810202821DC20230122203835
:1059A000CDE9013200EBD07073237339009301EB22
:1059B000D171894B40F34F0221E0B0F90A30D81D74
:1059C00048BF03F10E00B4F90830C010584300F08E
:1059D00075FEE0620028D7D104B0BDE8F081403800
:1059E000C0F3C03202FA80F240230120CDE9013039
:1059F000522352390093794B01EBD171521020465A
:105A000041F34F01FFF7ACFBA06A84F83170002826
:105A100078D0002D74D1B4F90A30202B0CBF3C256E
:105A20003D2584F83050B8F1000F01D000F01AFF86
:105A3000FEB194F9370000281BDB012180B202F08F
:105A400021F894F93700012180B202F02CF80120EE
:105A500000F07CFE94F93700002180B202F023F8B8
:105A60000A2000F073FE94F93700012180B202F0A1
:105A70001AF8A06A002874D0A16C00F0EFFE04228E
:105A800057492046FFF70BFF61890139C9B220460B
:105A9000FFF796FE534904222046FFF700FF94F9D2
:105AA0003130012B0CBF102114212046FFF788FE56
:105AB00004224D492046FFF7F2FEA3684B4A934269
:105AC0005CD14B4904222046FFF7E9FED92120464C
:105AD000FFF776FE94F93130012B0CBF2221F12122
:105AE0002046FFF76DFE204642490622FFF7D7FE0B
:105AF000A06A002863D0E16C00F0B0FE01206BE7E3
:105B00006DB28EE794F93500012180B201F0BAFF41
:105B100094F93600012180B201F0B4FF94F9360007
:105B2000012180B201F0BFFF656A3DB1B8F1000FFD
:105B30003FF47EAF284601F07FF979E794F933000E
:105B4000012180B201F09EFF94F93400012180B25E
:105B500001F098FF94F93400294680B201F0A3FFC8
:105B600066E7606A18B104F1380101F093F994F91D
:105B70003600002180B201F096FF80E71E4A934272
:105B80000ED11E4903222046FFF789FE94F93130D9
:105B9000012B0CBF9F21CF212046FFF711FE95E777
:105BA000174A934292D1174903222046FFF777FE06
:105BB00094F93130012B0CBF1021AF21ECE794F99F
:105BC0003600012180B201F06EFF606A002895D096
:105BD00001F046F992E700BF28B20B0068AF0B0056
:105BE00070B40B0074B40B0078B40B00800020007C
:105BF00082B40B007CB40B008000400086B40B0024
:105C00006000100089B40B0070B5002ABDF8105078
:105C10003DDBB0F90A40944239DD0029BEBF5B1874
:105C20001BB20021B0F90840CE18A642C4BF631AC7
:105C30001BB2002B2BDDC06AD61014FB06110144E9
:105C400002F0070001228240012DD2B216D0022DAF
:105C50000BD0E5B9D243D2B20B44994217D011F818
:105C6000010B104001F8010CF7E70B4499420ED0EC
:105C700011F8010B504001F8010CF7E70B44994271
:105C800005D011F8010B104301F8010CF7E770BDC6
:105C9000F0B50029BDF8145076DBB0F90860B142C8
:105CA00072DA002ABEBF9B181BB20022B0F90A406C
:105CB000D718A742C4BFA31A1BB2002B64DDC2F3DE
:105CC000C404C76A16FB041612F00702DBB207EB26
:105CD000060423D0C2F10802D2B22D4993423CBF40
:105CE0004FF0FF0CA2EB030E895C3CBF4CFA0EFC9C
:105CF0000CEA0101012D07D0022D2ED04DB917F865
:105D000006C02CEA010103E017F806C041EA0C01C5
:105D1000B955934238D3B0F908100C449A1AD2B24C
:105D2000072A0ED9022D1DD113462178C9432170AF
:105D3000083BB0F90810DBB2072B0C44F5D802F091
:105D400007020AB3134B012D9B5C1AD0022D1CD005
:105D5000D5B9227822EA030315E017F806C081EAD4
:105D60000C01D5E7291E18BF01214942C9B21346CB
:105D70002170083BB0F90860DBB2072B3444F7D838
:105D8000DDE7227813432370F0BD22785340FAE711
:105D900060B40B0068B40B0070B41446827EBDF88A
:105DA0000C60022A0DD0032A18D0012A11D10289D1
:105DB000E443144424B203960A46214670BCFFF71C
:105DC00067BF42890589E44319441444691A24B21F
:105DD00009B20396224670BCFFF716BF45891944E5
:105DE000691A09B2E7E730B41446827EBDF808505C
:105DF000022A0DD0032A18D0012A11D1E2180489F1
:105E0000A41A24B202950A46214630BCFFF7FCBE14
:105E10000289C9431144E2184489A41A09B224B280
:105E20000295224630BCFFF733BF4289C943114473
:105E300009B2E7E72DE9F8430446806A002842D01A
:105E4000A16C00F00BFD474905222046FFF727FD16
:105E5000218901392046C9B2FFF7B2FCB4F90A30F2
:105E6000DE1D48BF03F10E06D4E90A052389F610AA
:105E700013FB06F615FA86F600283AD094F930108E
:105E800000F0FAFCA06A036840219B68984701274C
:105E9000B542A06A24D01F2F0CD900F0F4FC94F96D
:105EA0003010A06A00F0E8FCA06A036840219B68FB
:105EB00098470127A06A15F8011B036801379B6802
:105EC0009847FFB2E4E7606A18B104F1380100F0C6
:105ED000E1FF94F93600002180B201F0E4FDB2E761
:105EE00000F0D1FCA06A78B3E16CBDE8F84300F0A3
:105EF000B5BC94F93500012180B201F0D4FDAE4269
:105F0000F0D0606A15F8019B18B1494601F030F8ED
:105F1000F5E708274FF0800894F9330009EA0801F3
:105F200080B201F0C0FD94F93400012180B201F08B
:105F3000BAFD94F93400002180B201F0B4FD013FB4
:105F40004FEA5808E8D1DAE794F93600012180B227
:105F500001F0A9FD606A18B1BDE8F84300F080BF08
:105F6000BDE8F8838CB40B0000210A22C0E90012BE
:105F70007047002310B50446C171837188B201F0E7
:105F8000ABFD08B10323A37100F034F9206010BD0C
:105F900038B50C4605461146A0B201F073FD214606
:105FA0002846BDE83840FFF7E4BF38B50446C0795D
:105FB00001F092FDA579003825F0080318BF0120F3
:105FC000C5F340058542A3710AD000F013F9A37907
:105FD000206083F00203A371A079C0F3C00038BD34
:105FE00000F008F92368C01AA3889842F4D3A37973
:105FF00003F00103AB42EFD000F0FCF8A37920607E
:1060000083F0010343F00803E5E7807900F009001D
:10601000A0F10803584258417047000010B5064BE4
:1060200003600446006D08B100F0C4F82046FFF795
:1060300021FB204610BD00BF9CB40B0010B50446E8
:10604000FFF7ECFF20467021FEF729F8204610BD2F
:1060500030B585B004460D4601F0A6FD104A114941
:10606000CDE901214FF0FF32802103460092204606
:106070002022FFF777FB0C4B23600023C4E9143583
:1060800004F15800FFF770FF04F16000FFF76CFFA8
:1060900004F16800FFF768FF204605B030BD00BF7F
:1060A000801A0600A08601009CB40B0013B50446BC
:1060B000503000F077F8636DD90705D5022204212E
:1060C00004F15800FFF764FF636D9A0705D50022BD
:1060D000032104F16000FFF75BFF636D5B0705D5EB
:1060E0000222114604F16800FFF752FF01230093DA
:1060F0003C2202212046FFF73DFC02B010BD10B546
:10610000436DD907044602D55830FFF74EFF636D43
:106110009A0703D504F16000FFF747FF636D5B0743
:1061200005D504F16800BDE81040FFF73EBF10BD83
:10613000436D024613F0010003D002F15800FFF74F
:1061400064BF7047436D024613F0020003D002F1B2
:106150006000FFF75ABF7047436D024613F004001A
:1061600003D002F16800FFF750BF704700F0EEBAAD
:1061700000F040B8704770477047000003065ABFF0
:10618000024B53F820000020704700BFECB40B0016
:1061900003065ABF024B53F820000020704700BF8F
:1061A000ECB60B0008B5024B1B681B6B019308BDD6
:1061B0004802030008B5024B1B685B6B019308BDE6
:1061C0004802030008B5024B1B685B6C019308BDD5
:1061D0004802030008B5024B1B685B68019308BDC9
:1061E0001802030008B5024B1B68DB68019308BD69
:1061F0001802030008B5024B1B685B69019308BDD8
:106200001802030008B5024B1B685B68019308BDC8
:106210002C02030008B5024B1B689B68019308BD64
:106220002C02030008B5024B1B68DB68019308BD14
:106230002C02030008B5024B1B681B69019308BDC3
:106240002C02030008B5024B1B685B69019308BD73
:106250002C02030008B5024B1B689B6A019308BD22
:106260002C02030008B5024B1B681B6B019308BD91
:106270002C02030008B5024B1B689B6F019308BDFD
:106280002C02030008B5024B1B681B68019308BD74
:106290002802030008B5024B1B68DB68019308BDA8
:1062A0002802030008B5024B1B689B69019308BDD7
:1062B0002802030008B5024B1B68DB69019308BD87
:1062C0002802030008B5024B1B681B6A019308BD36
:1062D0002802030008B5024B1B685B6A019308BDE6
:1062E0002802030008B5024B1B689B6A019308BD96
:1062F0002802030008B5024B1B68DB6A019308BD46
:106300002802030008B5024B1B681B6B019308BDF4
:106310002802030008B5024B1B685B6B019308BDA4
:106320002802030008B5024B1B681B6C019308BDD3
:106330002802030008B5024B1B685B69019308BD86
:106340006C02030008B5024B1B685B69019308BD32
:106350006402030008B5024B1B681B6A019308BD69
:106360006402030008B5024B1B689B6A019308BDD9
:106370006402030008B5024B1B689B68019308BDCB
:106380006802030008B5024B1B68DB68019308BD77
:106390006802030008B5024B1B689B69019308BDA6
:1063A0003802030008B5024B1B68DB69019308BD86
:1063B0003802030008B5024B1B681B6A019308BD35
:1063C0003802030008B5024B1B689B6A019308BDA5
:1063D0003802030008B5024B1B681B6B019308BD14
:1063E0003802030008B5024B1B689B6B019308BD84
:1063F0003802030008B5024B1B681B68019308BDF7
:106400003002030008B5024B1B685B69019308BDAD
:106410003002030008B5024B1B68DB69019308BD1D
:106420003002030008B5024B1B681B6A019308BDCC
:106430003002030008B5024B1B685B6A019308BD7C
:106440003002030008B5024B1B68DB6B019308BDEB
:106450003002030008B5024B1B681B6C019308BD9A
:106460003002030008B5024B1B685B6C019308BD4A
:106470003002030008B5024B1B68DB68019308BDBE
:106480003C02030008B5024B1B681B69019308BD61
:106490003C02030008B5024B1B685B69019308BD11
:1064A0003C02030008B5024B1B689B69019308BDC1
:1064B0003C02030008B5024B1B68DB69019308BD71
:1064C0003C02030008B5024B1B681B6A019308BD20
:1064D0003C02030008B5024B1B689B6A019308BD90
:1064E0003C02030008B5024B1B681B6C019308BDFE
:1064F0003C02030008B5024B1B681B68019308BDF2
:106500004C02030008B5024B1B685B68019308BD91
:106510004C02030008B5024B1B681B69019308BDC0
:106520004C02030008B5024B1B685B69019308BD70
:106530004C02030008B5024B1B689B69019308BD20
:106540004C02030008B5024B1B68DB69019308BDD0
:106550004C02030008B5024B1B681B6A019308BD7F
:106560004C02030008B5024B1B685B6B019308BD2E
:106570006002030008B5024B1B681B6D019308BD48
:106580006002030008B5024B1B685B68019308BDFD
:106590002002030008B5024B1B685B69019308BD2C
:1065A0002002030008B5024B1B68DB6A019308BD9B
:1065B0002002030008B5034B1B68D3F88830019311
:1065C00008BD00002002030008B5034B1B68D3F888
:1065D0009430019308BD00002002030008B5024B6F
:1065E0001B689B68019308BD4402030008B5024B79
:1065F0001B68DB6B019308BD4402030008B5024B26
:106600001B685B68019308BD4002030008B5024B9C
:106610001B689B68019308BD4002030008B5024B4C
:106620001B68DB68019308BD4002030008B5024BFC
:106630001B681B69019308BD4002030008B5024BAB
:106640001B685B69019308BD4002030008B5024B5B
:106650001B689B69019308BD4002030008B5024B0B
:106660001B68DB69019308BD4002030008B5024BBB
:106670001B681B6A019308BD4002030008B5024B6A
:106680001B681B6B019308BD4002030008B5024B59
:106690001B685B6B019308BD4002030008B5024B09
:1066A0001B681B6C019308BD4002030008B5024B38
:1066B0001B685B6C019308BD4002030008B5024BE8
:1066C0001B681B68019308BD1C02030008B5024B40
:1066D0001B685B68019308BD1C02030008B5024BF0
:1066E0001B689B68019308BD1C02030008B5024BA0
:1066F0001B68DB69019308BD1C02030008B5024B4F
:106700001B685B6A019308BD1C02030008B5024BBD
:106710001B681B6B019308BD1C02030008B5024BEC
:106720001B68DB6B019308BD1C02030008B5024B1C
:106730001B681B6C019308BD1C02030008B5024BCB
:106740001B685B6C019308BD1C0203000021FFF76E
:1067500021BF0000024800230360FFF733BD00BFE4
:10676000C4E60320002240681146FFF77FBF0022E5
:1067700040681146FFF78ABF40680022FFF77EBFDE
:106780004068002281F00101FFF768BF00234068E4
:106790001A461946FFF75ABF002340681A461946A1
:1067A000FFF74CBF002240681146FFF73FBF0022B1
:1067B00040681146FFF72ABF406800220221FFF718
:1067C0002DBF002340681A46FFF718BF024B032273
:1067D0005A60024A1A607047C8E60320FCB80B00F2
:1067E0007047F8B5064615460C468F18BC4206D0D1
:1067F000336814F8011B9B6830469847F6E7284633
:10680000F8BD007C0022FFF75DBD007C0021FFF792
:1068100061BD007C0021FFF765BD007C0021FFF712
:1068200069BD007C0021FFF76DBD10B51421044641
:10683000FDF735FC204610BD10B54FF47A730446C1
:1068400008460021C4E90113034B2360207411465C
:10685000FFF768FD204610BD38B90B00007C002210
:10686000FFF710BD0023007C1A461946FFF712BD42
:10687000007C0022FFF716BDC9B2FFF7F9BF007C0C
:106880000022FFF717BD0121FFF7F9BF704710B5D0
:1068900018210446FDF703FC204610BDF0B5037D2A
:1068A000062B8DB00E4600F104074FF0000412D005
:1068B00000F1080515F8011D0A22304600F07FF9A5
:1068C000AF42044419D0002CF4D02E21304600F001
:1068D0005DF90444EEE72F236A4639460A208DF815
:1068E0000040FFF72FFD684602F008F833680246C3
:1068F000DB68694630469847044620460DB0F0BD37
:1069000010B5054B0446112240F8043B002101F06C
:10691000B4FF204610BD00BF60B90B000346074A14
:1069200010B543F8042B01F1100251F8044B43F861
:10693000044B9142F9D10A781A7010BD60B90B006E
:10694000037D042B04D14068003818BF0120704734
:10695000062B07D143683BB983682BB9C3681BB9C1
:106960000069F1E7002070470120704710B59DF8DD
:10697000084044EA032343EA024242EA0161042355
:106980004160037510BD000013B5044C04609DF810
:1069900010400094FFF7EAFF02B010BD60B90B0091
:1069A00007B5064B0360CB7800938B784A7809785B
:1069B000FFF7DCFF03B05DF804FB00BF60B90B001C
:1069C000014B024A1A607047D0E603206CB90B00F5
:1069D000002340681A46FFF711BE406800220221DA
:1069E000FFF71CBE002240681146FFF70FBE0022D1
:1069F00040681146FFF71ABE002340681A46194640
:106A0000FFF71CBE002340681A461946FFF71EBE5A
:106A100040680021FFF742BE40680021FFF746BEF4
:106A20004068002281F00101FFF718BE4068002293
:106A3000FFF724BE002240681146FFF727BE002260
:106A400040681146FFF712BE2DE9F04395B0144699
:106A50000D460746FFF754FF00211C220DA80091A8
:106A600001F00BFF40230C9320466B460CAA00213B
:106A7000FFF788FC044600284BD1024601216868D4
:106A8000FFF7D4FD0221804622466868FFF7CEFD5D
:106A9000009E81462146002E3BD0002939D17368E3
:106AA000022B03D00A2B11D0F669F4E7B8F1000FDE
:106AB000FAD0716906A8043107ADFFF771FF0FCD59
:106AC0003C1D0FC42B6823704146EDE7B9F1000F60
:106AD000EAD07469102201A801F0CFFE06238DF8D8
:106AE000143001AD04F108031834186859682A46B7
:106AF00003C20833A3421546F7D101A906A807AD82
:106B0000FFF70CFF0FCD3C1D0FC42B6823704946C7
:106B1000CAE70098FFF72EFC384615B0BDE8F083B1
:106B2000024B034A1A6000225A607047D4E60320E1
:106B300078B90B00F8B506460D468F180024BD4203
:106B40000CD0336815F8011B9B6830469847031E2C
:106B500001DB1C44F3E7002C08BF1C462046F8BDAF
:106B600013B50446084659B1019101F0C7FE2368E8
:106B70000199DB680246204602B0BDE81040184784
:106B800002B010BD08B5FFF7EBFF08BD03689B68B6
:106B9000184738B50D210546FFF7F8FF0A210446CE
:106BA0002846FFF7F3FF204438BD38B50546FFF708
:106BB000D7FF04462846FFF7ECFF204438BD30B528
:106BC0008BB00023012A8DF8243098BF0A2209AC2B
:106BD0000D46B1FBF2F101FB125303F0FF03092B49
:106BE00094BF30333733DBB2AA4204F8013DEFD90A
:106BF0002146FFF7B5FF0BB030BD00002DE9F74F80
:106C000055EC104B06460F4610EE102A10EE100AF7
:106C10002B46294601F096FD40B153493046FFF717
:106C20009FFF8246504603B0BDE8F08F25F0004933
:106C30004E4B4FF0FF322046494601F083FD48B9E4
:106C40004A4B4FF0FF322046494601F05DFD08B93E
:106C50004749E3E7474B4FF060422046294601F0A1
:106C600067FD08B14449D9E7444B4FF060422046E4
:106C7000294601F03FFD0028F4D1002200232046E0
:106C8000294601F037FDD0B12D213046FFF77EFFB8
:106C900005F1004382461D463949DFF8EC904FF07C
:106CA000000B00204FF000085FFA8BF39F4208D9D9
:106CB00042464B4601F0D6FB0BF1010BF4E782464E
:106CC000EAE722462B4601F0EDF80D46044601F0B6
:106CD00077FD804601F022FA02460B4620462946FF
:106CE00001F0DEF80A2204460D4630464146FFF721
:106CF00066FF8244002F95D02249DFF88C90304601
:106D0000FFF72EFF4FF000088244002F8AD0424642
:106D10004B462046294601F07BFA04460D4601F019
:106D200027FDB0F1000B1CDA2D213046FFF72EFFB6
:106D3000CBF1000103460A2230460193FFF73FFFE3
:106D4000019B18448244584601F0F8F902460B466C
:106D50002046294601F0A4F8013F04460D46FFB243
:106D6000D3E759460023E6E7ACB90B00FFFFEF7FFE
:106D7000B0B90B00FFFFEF41B4B90B00FFFFEFC14B
:106D80000000E03FB8B90B0000002440C9B2FFF793
:106D900035BF38B5C9B20546FFF730FF044628466F
:106DA000FFF7F7FE204438BD2DE9F04186B000AF73
:106DB00005460E46381D142114463B60FFF79EFC25
:106DC00013280ED8391D2846FFF7CAFE04461EB107
:106DD0002846FFF7DEFE044420461837BD46BDE8CE
:106DE000F08100F1080323F00703E846ADEB030D43
:106DF0002246411C3B686846FFF780FC69462846EE
:106E0000FFF7AEFE0446C546E1E70000014B002255
:106E10009A607047DCE603200021FFF723BB0021C6
:106E2000FFF718BB10B5044608462170FFF7F2FAC9
:106E300000236360204610BD13B504460078FFF7B9
:106E4000EEFF58B9207801904FF6FF71FFF7D2FAA4
:106E5000019802B0BDE81040FFF7DEBF02B010BDE0
:106E60000078FFF7D9BF0000400830B51860002453
:106E700018688842E5B206D90134082C02D04008CF
:106E80001860F5E70725024B5B5D137030BD00BF4E
:106E9000BAB90B002DE9F04306468FB000780C46D6
:106EA000FFF7BDFF00281BDB35781422002109A85D
:106EB00001F0E3FC0B23002209A92846ADF8243099
:106EC000FFF7B8FA9DF82D3013B19DF82C5055B14D
:106ED0000027B946B846012523795DB1C3B100202A
:106EE0000FB0BDE8F083DDF830809DF834909DF858
:106EF0003570F1E7002B35D1A368434508D18DF8F3
:106F000020908DF82170BDF82020A3899A42E6D008
:106F10000023A1688DF80F300A9804AB0DF10F0221
:106F2000FFF7A2FF217985B989B9A36843450ED33C
:106F30008DF820908DF82170BDF82020A3899A4209
:106F400005D1049B434502D1C9E70029F9D10023AB
:106F50000193637B00939DF80F20237B3078FFF72C
:106F600071FABCE7CDE900552B462A460121F5E729
:106F700008B50078FFF746FAC0B208BD10B5044660
:106F8000FFF738F9E060236820465B6998470028DE
:106F900008DAFFF72FF9E368C01AA3689842F2D322
:106FA0004FF0FF3010BD2DE9F04107460C468E181A
:106FB0000D46B542A5EB040807D03846FFF7DEFFC3
:106FC000031E02DB05F8013BF3E74046BDE8F08114
:106FD00010B504460068FFF779FB204610BD10B5D8
:106FE0000446006808B1FFF771FB0023C4E90133D0
:106FF000236010BD38B504460D4600680131FFF727
:107000006DFB10B1C4E90005012038BD10B503685F
:10701000044623B143688B4201D3012010BD2046B2
:10702000FFF7E8FF0028F9D0A368002BF5D122680C
:107030001370F2E737B50D46114601920446FFF78B
:10704000E5FF019A28B92046FFF7C9FF204603B0A3
:1070500030BDA2602946206801F001FC2268A368C7
:107060000021D154F2E7002313B5C0E900330446F0
:107070008360037341B10846019101F03FFC01991F
:1070800002462046FFF7D6FF204602B010BD0000A2
:10709000054B02221A60054B054A9A600020C3E99D
:1070A0000000FFF76FBA00BFF8E60320ECE603200C
:1070B0000000FFFF13B503688DF80710DC6B012299
:1070C0004FF0FF330DF10701A04702B010BD10B41F
:1070D0000368DC6B4FF0FF33A4465DF8044B604758
:1070E00013B5134602688DF80710D46B0DF1070134
:1070F0000122A04702B010BD10B54369B3F8862045
:10710000B3F884309A42044608D06369B3F8842007
:10711000511CA3F884101344187910BD03681B692F
:1071200098470028F1D14FF0FF30F6E770474369E8
:107130001868C043C00F704770470000064B994263
:1071400010B500F10C0405D0084600F093FD0028AE
:1071500008BF0024204610BDECB80B0010B5AC21D0
:107160000446FCF79CFF204610BDAC21FCF797BFFE
:107170002DE9F0414FF0000886B01C46C0F80480AD
:1071800005460E4617464146102202A801F075FB3F
:10719000631C09D04FF47A73B4FBF3F203FB12447F
:1071A000CDE902285C4304946869102300930068C9
:1071B00002AB41F2050240F6FF71FFF7EBF8002841
:1071C00007DAFFF7ABFA03686B60002006B0BDE892
:1071D000F0816869002300683A463146FFF7FAF803
:1071E000031EEEDB1846F1E738B584690A4B0360ED
:1071F00005467CB16368013B63605BB92368204648
:107200009B689847A368013BA3601BB9236820468D
:10721000DB689847284638BD00BA0B0010B5044615
:10722000FFF7E2FF20461C21FCF739FF204610BD86
:1072300030B587B0044601AD6846FFF7B1FB0FCD0E
:1072400004340FC42B68237007B030BD70B54D698E
:10725000054B04468C3544F8043B06460FCD0FC45D
:107260002B682370304670BD60B90B002DE9F043E8
:107270009846036893B00D460024DB6A064617461D
:10728000984728466B46224621460094FFF77AF835
:107290000546002863D1009B002B4BD05B69002B77
:1072A00048D006A8FFF72CFB009B5C696378022B93
:1072B00004D1211D06A8FFF7BBFF26E00A2B24D12D
:1072C0001122294601A801F0D8FAA368002B38D072
:1072D00004F108030DF1040C18341868596862466B
:1072E00003C20833A3429446F7D1062301A90CA890
:1072F0008DF81430FFF712FB0DF1340CBCE80F00D1
:1073000007AC0FC4DCF80030237006A8FFF718FBA9
:1073100080B1336807ADD3F82090124B0C930FCD9A
:107320000DAC0FC42B6823703A4643460CA9304677
:10733000C84705460098FFF71DF8284613B0BDE87A
:10734000F083E368002BC3D14FF6FF70D4F81090A0
:10735000FFF700F88145BBD104F11401AAE72546E7
:10736000E8E700BF60B90B0038B543691A68002A26
:10737000054610DAB3F88620B3F884309A420AD171
:1073800003681B699847044628B92B682846DB6ABE
:107390009847204638BD0120FCE710B54369B3F893
:1073A0008620B3F884309A42044605D06369B3F866
:1073B00084201344187910BD03681B69984700287E
:1073C000F4D14FF0FF30F6E7F8B543691746B3F84C
:1073D0008620B3F884309A4205460E4616D0696975
:1073E000B1F88430B1F88640E41ABC4228BF3C466C
:1073F000043322461944304601F031FA6A69B2F882
:1074000084302344A2F884302046F8BD03681B6909
:1074100098470028E3D14FF0FF34F5E74269002395
:10742000A2F884304269A2F8863070472DE9F04115
:107430001F4603680C46DB6A8AB005461646984725
:10744000237DD5F81480042B0CBF02200A200622CD
:107450000121FEF7C7FFC8F800006B691B68002B0D
:1074600008DA2B682846DB6A0024984720460AB0D1
:10747000BDE8F0812846FFF7D1FFB7B1002303A98B
:10748000F8B20393ADF81030FEF754FF0028E8D1AE
:10749000686906230093006803AB41F20B0240F6D3
:1074A000FF71FEF777FF0028DBD11C22002103A823
:1074B00001F0E3F9237D042B1DD14FF4077330460F
:1074C000ADF80C30FEF74EFFADF80E006068FEF729
:1074D00041FF04906B691C22186803A9FEF76AFF3C
:1074E0000028BED104340FCC6D698C350FC52368DC
:1074F0002B700124BAE740F61C233046ADF80C305F
:10750000FEF730FF05AEADF80E00231D04F11407A1
:1075100018685968324603C20833BB421646F7D191
:10752000D8E7000030B54269B2F886308BB0044627
:107530002BB1B2F884209A4201D1FFF76FFF616945
:107540000868002818DBB1F886507F2D14D8043164
:107550000823C5F180022944FEF734FF002813DD1B
:107560006369B3F886200AB9A3F884206369B3F885
:1075700086201044A3F886006369B3F88600B3F848
:107580008430C01A0BB030BDFFF7C8F803680B2B6E
:10759000F2D0FFF7C3F803680B2BEDD020230025B2
:1075A000CDE90235FFF7BAF803680193084B0949A2
:1075B000009302AA2B463220FEF7DCFF63691868AD
:1075C000FEF7F0FE63694FF0FF321A60D4E700BFA8
:1075D000C9B90B00C2B90B0010B54369044618685D
:1075E000002801DBFEF7DEFE63694FF0FF321A6010
:1075F0006069112200218C3001F03FF92046BDE87E
:107600001040FFF70BBF10B5002304460160C0F81F
:1076100084308830FFF774F9204610BD73B500231D
:107620004FF47A72C0E901320E4A0361026043618D
:107630000446AC200191FCF72EFD051E05F10C0659
:1076400008D00123C5E90133074B01992B6030466F
:10765000FFF7D9FF2046C4E90565FFF7DFFE02B05A
:1076600070BD00BF00BA0B00E4B90B0010B54FF0BD
:10767000FF310446FFF7D2FF204610BD10B5044687
:107680000068002801DBFEF78DFE204610BD0C309F
:10769000FFF7F4BF024B1A68024B1A60704700BF35
:1076A0000CE40320FCE6032070474174704708B5E2
:1076B000007CFEF70FFF20EAE07008BD08B5007CF3
:1076C000FEF7E0FE20EAE07008BD08B5007CFEF79A
:1076D000E9FE40EAE07008BD08B5007CFEF7DAFE7E
:1076E00040EAE07008BD007CFEF7E4BE37B5457C9B
:1076F00004462DB1207C03B0BDE83040FEF7BABE91
:10770000007C0191FEF7E6FE00280199F2DC284694
:1077100003B030BD10B514210446FCF7C0FC204670
:1077200010BD000010B54FF47A73044608461146A8
:107730000022C4E90123044B2360012320746374F5
:10774000FEF7D0FE204610BD68BA0B0041747047AA
:107750007047704708B50021007CFEF7EBFE40EA59
:10776000E07008BD08B50121007CFEF7E3FE40EAA9
:10777000E07008BD08B5007CFEF7D4FE20EAE0709A
:1077800008BD08B5007CFEF7C5FE20EAE07008BD24
:1077900013B50446007C0191FEF7C4FE0028019950
:1077A00001DC607C20B1207CFEF7CCFE20EAE0709A
:1077B00002B010BD007CFEF7CDBE10B5142104460A
:1077C000FCF76DFC204610BD10B54FF47A730446EB
:1077D00008460021C4E90113044B236001232074EF
:1077E00063741146FEF786FE204610BD98BA0B0062
:1077F000007C0022FEF786BE10B51422044600214C
:1078000001F03BF8204610BD10B50F4C88B003A81E
:10781000FFF7F2FF2178BFF35B8F11F001010FD169
:1078200020460191FCF74AFC019948B103AA074898
:10783000FFF7CAFF2046FCF746FC054800F0FEFFB4
:10784000024808B010BD00BF00E7032004E7032092
:1078500051770B00002240681146FEF7E7BE002278
:1078600040681146FEF702BF002240681146FEF74D
:107870000DBF40680022FEF701BF4068002281F082
:107880000101FEF7EBBE002340681A461946FEF7D9
:10789000DDBE002340681A461946FEF7CFBE00221F
:1078A00040681146FEF7B2BE406800220221FEF792
:1078B000B5BE002340681A46FEF7A0BE024B042264
:1078C0005A60024A1A60704718E70320C8BA0B00D2
:1078D000014B1860704700BF10E4032008B50B4B44
:1078E00043B1FFF791FF03681B699847002801DD4A
:1078F000AFF30080064B43B100F096F903681B69B3
:107900009847002801DDAFF3008008BD00000000AB
:107910000000000008B5FFF7E1FFFEF76BFC014B2C
:10792000186008BD28E703200548064A064908B53F
:10793000121A00F094FF054B054A1A6008BD00BFFB
:1079400000F4032004F40320E4BF0B0000F4032040
:107950001E1C279A07B5002300931A466FF0770183
:10796000FEF732FE03B05DF804FB000007B5438864
:107970000A2B08D0502B0BD1094B1B684BB103B01D
:107980005DF804EB1847FFF7E5FF03B05DF804FB73
:10799000002300931A466FF07701FEF715FEF4E717
:1079A00024E7032010B512480021FEF7C7FE114B53
:1079B0001A68114B9A42114B0CBF012200221A7017
:1079C00001D0FFF7B1FFFEF705FC044600F05EFFB3
:1079D0000B4B13B12046AFF3008000210848FEF79F
:1079E00005FEBDE8104007480021FEF7E3BD00BFDB
:1079F000D1780B0000F403201E1C279A20E70320F7
:107A0000000000006D790B00232813B502D9002077
:107A100002B010BDA0F10B03022B1AD8174C21782D
:107A2000BFF35B8F11F001010BD120460191FCF7F0
:107A300045FB019928B11248FFF7F4F92046FCF7FD
:107A400042FB0F4B1878FEF7EDFC0028DFD1012038
:107A5000DEE7012809D800F0A7F80021007CFEF736
:107A600059FC80F00100C0B2D2E709380128EED8F5
:107A700000F0DAF8007CFEF725FDF2E7B8E6032017
:107A8000BCE60320232838B504460D460AD8FF2952
:107A900008D0FFF7B9FF28B129462046BDE8384095
:107AA000FEF7B8BB38BD38B504460D46FEF7BAFB45
:107AB000FF2810D0062804D84D2323FA00F0C3076E
:107AC00009D42046FFF7A0FF28B129462046BDE88B
:107AD0003840FEF7AFBB38BD10B50446FEF7A2FB39
:107AE000031FDBB2012B08D92046FFF78DFF20B121
:107AF0002046BDE81040FEF7A5BB002010BD0D28B4
:107B000010B504469CBF0E34A4B22046FFF77CFF9C
:107B100050B103212046FEF775FB032804D120460F
:107B2000BDE81040FEF79EBB002010BD38B50446EE
:107B30000D46FFF769FFF0B104212046FEF762FB16
:107B4000042805D1A9B22046BDE83840FEF782BB23
:107B500002212046FEF756FB02280CD12046FEF7F4
:107B600061FB012801D0042805D129462046BDE843
:107B70003840FEF77FBB38BD7047000038B5202580
:107B8000142304460360856005610649284600F019
:107B90006FF804496060284600F06AF8E06020460B
:107BA00038BD00BFFCBA0B0030B50E4D2978BFF3CD
:107BB0005B8F11F0010487B011D12846FCF77EFAE3
:107BC00068B101A8FFF7DAFF01AA21460648FEF7CF
:107BD00033FE2846FCF777FA044800F02FFE0248EF
:107BE00007B030BD2CE7032030E70320797B0B0082
:107BF0007047000038B5044614252A46002100F0DD
:107C00003CFE25804025074925812846258200F035
:107C10002FF804496060284600F02AF8E06020460A
:107C200038BD00BFFCBA0B0030B50E4D2978BFF34C
:107C30005B8F11F0010487B011D12846FCF73EFAA2
:107C400068B101A8FFF7D6FF01AA21460648FFF751
:107C500069FD2846FCF737FA044800F0EFFD0248BA
:107C600007B030BD44E7032048E70320F17B0B0059
:107C7000FCF713BA014900F0F9B800BF18BB0B00BC
:107C80007FB500241023CDE90234036815469E69B0
:107C900012686B46CDE90044B0479DF8043003F00C
:107CA0000603062B03BF009B2B600120204604B077
:107CB00070BD0098904214BF01200620704700005C
:107CC00010B5034B0360044600F0CDF8204610BD0C
:107CD00058BB0B0010B50446FFF7F2FF2046082101
:107CE000FCF7DDF9204610BD2DE9F0411F46DDE926
:107CF0000834DDF8188098450646154607D10799DF
:107D000000F0B4F818B165710020BDE8F081394683
:107D1000304600F0ABF80028F6D00123C4F800800C
:107D20002571A371F0E738B515461C4600F09EF8A2
:107D300020B10823E36006232560237138BD73B5A5
:107D400005460C4601921E4600F090F850B9032EED
:107D500008D82368019A5B692946204602B0BDE82D
:107D60007040184702B070BD10B5034B0360044665
:107D7000FFF7A6FF204610BDB8BB0B0010B50446A8
:107D8000FFF7F2FF20460C21FCF789F9204610BDD1
:107D9000F7B5089F974205460E4614460AD0A868D4
:107DA00002680897156A31462246AC4603B0BDE822
:107DB000F04060471946019300F058F8019B0028F5
:107DC000EDD0062003B0F0BD2DE9F14F0D46194668
:107DD000DDE90A4BDDE90CA681461746984600F01E
:107DE00045F890B1002D3460377109DB61198A457F
:107DF0000CBF06210121B171002001B0BDE8F08F58
:107E00000235F9D10123B371F6E7544506D159463D
:107E1000484600F02BF808B17771EDE7D9F8080073
:107E20000368CDE90CA6CDE90A4BDC693A46434626
:107E30002946A44601B0BDE8F04F60472DE9F04166
:107E400007460C4615461E46FFF76DFF48B9B86851
:107E500003689F692A4633462146BC46BDE8F04187
:107E60006047BDE8F081704700207047814208B547
:107E70000ED0406803782A2B0CD049680B782A2B47
:107E800008BF013100F030FDB0FA80F0400908BDB4
:107E90000120FCE70020FAE781F0004102E000BF8A
:107EA00083F0004330B54FEA41044FEA430594EABA
:107EB000050F08BF90EA020F1FBF54EA000C55EAF5
:107EC000020C7FEA645C7FEA655C00F0E2804FEAC6
:107ED0005454D4EB5555B8BF6D420CDD2C4480EAA8
:107EE000020281EA030382EA000083EA010180EAD8
:107EF000020281EA0303362D88BF30BD11F0004F26
:107F00004FEA01314FF4801C4CEA113102D040425B
:107F100061EB410113F0004F4FEA03334CEA133396
:107F200002D0524263EB430394EA050F00F0A780AE
:107F3000A4F10104D5F1200E0DDB02FA0EFC22FAA9
:107F400005F2801841F1000103FA0EF2801843FA9D
:107F500005F359410EE0A5F120050EF1200E012A8E
:107F600003FA0EFC28BF4CF0020C43FA05F3C018CC
:107F700051EBE37101F0004507D54FF0000EDCF145
:107F8000000C7EEB00006EEB0101B1F5801F1BD3EE
:107F9000B1F5001F0CD349085FEA30004FEA3C0CF2
:107FA00004F101044FEA445212F5800F80F09A80E8
:107FB000BCF1004F08BF5FEA500C50F1000041EBEC
:107FC000045141EA050130BD5FEA4C0C404141EBF0
:107FD0000101013C28BFB1F5801FE9D291F0000FEB
:107FE00004BF01460020B1FA81F308BF2033A3F19A
:107FF0000B03B3F120020CDA0C3208DD02F1140C91
:10800000C2F10C0201FA0CF021FA02F10CE002F1CB
:108010001402D8BFC2F1200C01FA02F120FA0CFCC4
:10802000DCBF41EA0C019040E41AA2BF01EB04510D
:10803000294330BD6FEA04041F3C1CDA0C340EDC0B
:1080400004F11404C4F1200220FA04F001FA02F34E
:1080500040EA030021FA04F345EA030130BDC4F10C
:108060000C04C4F1200220FA02F001FA04F340EA01
:108070000300294630BD21FA04F0294630BD94F0B2
:10808000000F83F4801306BF81F480110134013D99
:108090004EE77FEA645C18BF7FEA655C29D094EA0A
:1080A000050F08BF90EA020F05D054EA000C04BF88
:1080B0001946104630BD91EA030F1EBF0021002073
:1080C00030BD5FEA545C05D14000494128BF41F012
:1080D000004130BD14F580043CBF01F5801130BD76
:1080E00001F0004545F0FE4141F470014FF0000001
:1080F00030BD7FEA645C1ABF194610467FEA655CB2
:108100001CBF0B46024650EA013406BF52EA033553
:1081100091EA030F41F4002130BD00BF90F0000F41
:1081200004BF0021704730B54FF4806404F132047D
:108130004FF000054FF0000150E700BF90F0000F36
:1081400004BF0021704730B54FF4806404F132045D
:1081500010F0004548BF40424FF000013EE700BF2D
:1081600042004FEAE2014FEA31014FEA02701FBFBD
:1081700012F07F4393F07F4F81F06051704732F0EF
:108180007F4208BF704793F07F4F04BF41F4002146
:10819000704730B54FF4607401F0004521F00041A4
:1081A0001CE700BF50EA010208BF704730B54FF02E
:1081B00000050AE050EA010208BF704730B511F02F
:1081C000004502D5404261EB41014FF4806404F167
:1081D00032045FEA915C3FF4D8AE4FF003025FEAED
:1081E000DC0C18BF03325FEADC0C18BF033202EB71
:1081F000DC02C2F1200300FA03FC20FA02F001FACB
:1082000003FE40EA0E0021FA02F11444BDE600BF6D
:1082100070B54FF0FF0C4CF4E06C1CEA11541DBF1C
:108220001CEA135594EA0C0F95EA0C0F00F0DEF8E7
:108230002C4481EA030621EA4C5123EA4C5350EACC
:10824000013518BF52EA033541F4801143F480131D
:1082500038D0A0FB02CE4FF00005E1FB02E506F0AE
:108260000042E0FB03E54FF00006E1FB03569CF003
:10827000000F18BF4EF0010EA4F1FF04B6F5007F09
:1082800064F5407404D25FEA4E0E6D4146EB06067B
:1082900042EAC62141EA55514FEAC52040EA5E5004
:1082A0004FEACE2EB4F1FD0C88BFBCF5E06F1ED8AE
:1082B000BEF1004F08BF5FEA500E50F1000041EBE5
:1082C000045170BD06F0004646EA010140EA020092
:1082D00081EA0301B4EB5C04C2BFD4EB0C0541EAB4
:1082E000045170BD41F480114FF0000E013C00F3C9
:1082F000AB8014F1360FDEBF002001F0004170BDED
:10830000C4F10004203C35DA0C341BDC04F1140405
:10831000C4F1200500FA05F320FA04F001FA05F291
:1083200040EA020001F0004221F0004110EBD3705E
:1083300021FA04F642EB06015EEA430E08BF20EA8A
:10834000D37070BDC4F10C04C4F1200500FA04F32D
:1083500020FA05F001FA04F240EA020001F00041BF
:1083600010EBD37041F100015EEA430E08BF20EA32
:10837000D37070BDC4F1200500FA05F24EEA020E7A
:1083800020FA04F301FA05F243EA020321FA04F0A9
:1083900001F0004121FA04F220EA020000EBD37060
:1083A0005EEA430E08BF20EAD37070BD94F0000F60
:1083B0000FD101F00046400041EB010111F4801F94
:1083C00008BF013CF7D041EA060195F0000F18BF45
:1083D000704703F00046520043EB030313F4801F81
:1083E00008BF013DF7D043EA0603704794EA0C0F3B
:1083F0000CEA135518BF95EA0C0F0CD050EA410651
:1084000018BF52EA4306D1D181EA030101F00041CD
:108410004FF0000070BD50EA410606BF10461946F5
:1084200052EA430619D094EA0C0F02D150EA013601
:1084300013D195EA0C0F05D152EA03361CBF104642
:1084400019460AD181EA030101F0004141F0FE41E1
:1084500041F470014FF0000070BD41F0FE4141F465
:10846000780170BD70B54FF0FF0C4CF4E06C1CEA65
:1084700011541DBF1CEA135594EA0C0F95EA0C0F1A
:1084800000F0A7F8A4EB050481EA030E52EA0335D5
:108490004FEA013100F088804FEA03334FF08055F6
:1084A00045EA131343EA12634FEA022245EA111523
:1084B00045EA10654FEA00260EF000419D4208BFD4
:1084C000964244F1FD0404F5407402D25B084FEA81
:1084D0003202B61A65EB03055B084FEA32024FF42D
:1084E00080104FF4002CB6EB020E75EB030E22BF8A
:1084F000B61A754640EA0C005B084FEA3202B6EB4A
:10850000020E75EB030E22BFB61A754640EA5C00F8
:108510005B084FEA3202B6EB020E75EB030E22BF88
:10852000B61A754640EA9C005B084FEA3202B6EB89
:10853000020E75EB030E22BFB61A754640EADC0048
:1085400055EA060E18D04FEA051545EA16754FEAAA
:1085500006164FEAC30343EA52734FEAC2025FEAC8
:108560001C1CC0D111F4801F0BD141EA00014FF057
:1085700000004FF0004CB6E711F4801F04BF014328
:108580000020B4F1FD0C88BFBCF5E06F3FF6AFAE44
:10859000B5EB030C04BFB6EB020C5FEA500C50F1D4
:1085A000000041EB045170BD0EF0004E4EEA113157
:1085B00014EB5C04C2BFD4EB0C0541EA045170BD5E
:1085C00041F480114FF0000E013C90E645EA060EA2
:1085D0008DE60CEA135594EA0C0F08BF95EA0C0FD0
:1085E0003FF43BAF94EA0C0F0AD150EA01347FF418
:1085F00034AF95EA0C0F7FF425AF104619462CE7EF
:1086000095EA0C0F06D152EA03353FF4FDAE104651
:10861000194622E750EA410618BF52EA43067FF4A2
:10862000C5AE50EA41047FF40DAF52EA43057FF432
:10863000EBAE12E74FF0FF3C06E000BF4FF0010C3D
:1086400002E000BF4FF0010C4DF804CD4FEA410CA1
:108650007FEA6C5C4FEA430C18BF7FEA6C5C1BD06E
:1086600001B050EA410C0CBF52EA430C91EA030FEF
:1086700002BF90EA020F0020704710F1000F91EA4C
:10868000030F58BF994208BF90422CBFD8176FEA1A
:10869000E37040F0010070474FEA410C7FEA6C5CE8
:1086A00002D150EA013C07D14FEA430C7FEA6C5CEF
:1086B000D6D152EA033CD3D05DF8040B704700BF1B
:1086C0008446104662468C461946634600E000BF69
:1086D00001B5FFF7B7FF002848BF10F1000F01BD3B
:1086E0004DF808EDFFF7F4FF0CBF012000205DF806
:1086F00008FB00BF4DF808EDFFF7EAFF34BF01208B
:1087000000205DF808FB00BF4DF808EDFFF7E0FF23
:1087100094BF012000205DF808FB00BF4DF808ED74
:10872000FFF7CEFF94BF012000205DF808FB00BFDB
:108730004DF808EDFFF7C4FF34BF012000205DF8BD
:1087400008FB00BF4FEA410C7FEA6C5C02D150EAA3
:10875000013C0AD14FEA430C7FEA6C5C02D152EA39
:10876000033C02D14FF0000070474FF0010070470A
:108770004FEA410212F5001215D211D56FF4787349
:10878000B3EB625212D94FEAC12343F0004343EAEC
:10879000505311F0004F23FA02F018BF40427047C7
:1087A0004FF00000704750EA013005D111F0004051
:1087B00008BF6FF0004070474FF00000704700BFE7
:1087C0004A0011D212F5001211D20DD56FF4787350
:1087D000B3EB62520ED44FEAC12343F0004343EAA5
:1087E000505323FA02F070474FF00000704750EAF0
:1087F000013002D14FF0FF3070474FF0000070475A
:10880000D0B50C4B002206460F46FFF701FDFFF7DF
:10881000D7FF0446FFF782FC074B0022FFF7F8FC66
:1088200002460B4630463946FFF73AFBFFF7C8FFD2
:108830002146D0BD0000F03D0000F041002301467C
:108840001A46184600F046BF002100F0ABBE0A22CF
:10885000002100F035BF0A22002100F031BF0A4498
:10886000914200F1FF3300D1704710B511F8014B70
:1088700003F8014F9142F9D110BD024403469342DF
:1088800000D1704703F8011BF9E7000038B5104B21
:108890001D68AB6B0446B3B91820FDF70FFF024605
:1088A000A86320B90B4B0C484221FDF73FFF0B4951
:1088B0000B4BC0E900130B4B83600B23838100211A
:1088C0000120C2E90401AB6B00221C615A6138BD72
:1088D00010E40320F1BB0B0008BC0B000E33CDAB42
:1088E00034126DE6ECDE050010F8012B11F8013BA7
:1088F000012A28BF9A42F7D0D01A7047034613F8CE
:10890000012B002AFBD1181A0138704710B57AB133
:1089100003460139841813F8010B11F8012F904216
:1089200001D1A34201D1801A10BD0028F3D1FAE78A
:108930001046F9E710B50139034632B111F8014F7D
:1089400003F8014B013A002CF7D11A44002193425D
:1089500000D110BD03F8011BF9E770B504460D46C0
:1089600045EC104B164601F00FFE51EC100B7EB19A
:10897000C5F30A53C3F16B03002B09DD1B0503F19B
:108980007F55002405F5401522462B46FFF740FC95
:1089900070BD0000000000002DE9F04F2DED028BAE
:1089A0009DB01F4600231893A24B13921B6805939A
:1089B000044618468846FFF7A1FF4FF0000A054617
:1089C0004FF0000BCDF85C80179B1A782B2A4ED005
:1089D0003BD80D2A34D8082A34D8002A3ED00023A8
:1089E0000A93179E3378302B40F0B080737803F0F1
:1089F000DF03582B68D10A9B019318AB02970093B1
:108A00008D4A19AB17A9204600F02EFF10F007077A
:108A1000054605D0062F2CD10136002317960A9360
:108A2000139B002B40F090850A9BEBB152460BF153
:108A3000004343EC102B1DB0BDEC028BBDE8F08F62
:108A4000202ACCD101331793BEE72D2AC7D10122AA
:108A50000A925A1C17925B78002BC2D1139BCDF857
:108A60005C80002B40F06E8552465B46E1E70022B9
:108A7000EEE7189A3AB135211AA801F090FE18993C
:108A8000204601F04FFA013F042F06D8DFE807F037
:108A90000A0314170A00DDE91AAB2807C0D54BF00A
:108AA000004BBDE7DDE91AA3199A23F4801302F203
:108AB000334243EA025BF0E7DFF880B1EDE76FF0A5
:108AC000004B4FF0FF3AE8E7179B5A1C17925B7870
:108AD000302BF9D0002BA3D001234FF000090493D1
:108AE000179B0893CDF81C904F460A2217980678DA
:108AF000A6F13003D9B209292AD905992A46FFF7E8
:108B000005FF98B3002032463D4605900346652A8E
:108B100001D0452A18D11DB9049A02439ED00025E0
:108B2000DDF85C8008F10102179298F801202B2AE9
:108B300075D02D2A7BD04FF0000CA2F1300109290D
:108B400040F28280CDF85C8000269DE00023C4E7DF
:108B5000082FD8BF079900F10100DABF02FB0133EB
:108B6000079302FB093901371790BFE7179B5A1982
:108B700017925A5D002F37D005903D46A2F1300381
:108B8000092B12D90123C2E7179B5A1C17925A7856
:108B90000130302AF8D0A2F13103082B00F2D98439
:108BA000179B0590002008930546303A00F1010319
:108BB00014D00599194405912B4600EB050E0A21A6
:108BC000734513D12B18082B05F1010505441CDC56
:108BD00007990A2303FB012307930023179A511CCB
:108BE000179152781846C9E73846D2E7082B04DCBB
:108BF000079E4E4307960133E2E703F1010CBCF1F7
:108C0000100FD8BF01FB09F9F5E7102DDCBF0A23CF
:108C100003FB0929E1E70023059301237CE74FF0DB
:108C2000000C08F10202179298F8022085E74FF035
:108C3000010CF6E72CBE0B0068BC0B000000F07FB7
:108C4000179A511C17915278302AF9D0A2F13101AC
:108C500008293FF679AFA2F1300E179A0692179ABB
:108C6000511C17915278A2F13006092E37D9069E71
:108C7000891B082944F61F6602DC7645A8BF7646A4
:108C8000BCF1000F00D07642002D4DD10499014374
:108C90007FF4C6AE002B7FF4E1AE692A27D024DC36
:108CA000492A24D04E2A7FF4D9AE9F4917A801F053
:108CB00033F800283FF4D2AE179B1B78282B2DD118
:108CC0009A491AAA17A801F03BF8052826D11B9B40
:108CD000DDF868A043F0FF4B4BF4E00BA0E60A215F
:108CE00001FB0E2EAEF1300EB9E76E2ADBE790499C
:108CF00017A801F011F800283FF4B0AE179B8D497A
:108D0000013B17A8179301F007F810B9179B01331F
:108D10001793DFF830B24FF0000A81E6864801F081
:108D200093FD5BEC10AB7BE6059B0798F31A002FD5
:108D300008BF2F46102D0693A846A8BF4FF0100875
:108D4000FFF7ECF9092D82468B4613DD7B4B03EBD5
:108D5000C80353E91223FFF75BFA824648468B4665
:108D6000FFF7DCF902460B4650465946FFF79AF8E2
:108D700082468B460F2D38DC069B002B3FF450AE0D
:108D800024DD162B0BDC6D4901EBC301D1E9000199
:108D900052465B46FFF73CFA82468B4640E6069A0F
:108DA000C5F12503934220DB644CC5F10F0504EBAC
:108DB000C50152465B46D1E90001FFF729FA069B3F
:108DC0005D1B04EBC504D4E90023E3E7069B1633DF
:108DD0000BDB059B9E1B594B03EBC606D6E9002314
:108DE00050465946FFF73EFBD6E7069BA5EB080821
:108DF0009844B8F1000F74DD18F00F030AD04F4902
:108E000001EBC30152465B46D1E90001FFF700FACE
:108E100082468B4638F00F084FD0B8F59A7F22DD96
:108E200000252E46079505952223DFF818B123600B
:108E30004FF0000A079B002B3FF4F2AD1899204633
:108E400001F070F80599204601F06CF83146204693
:108E500001F068F80799204601F064F82946204699
:108E600001F060F8DCE5364B049300234FEA281844
:108E7000504659469946B8F1010F21DC0BB18246A4
:108E80008B462F4BABF1547B03EBC90952465B4633
:108E9000D9E90001FFF7BCF92A4B0A460B402A49E1
:108EA0008B428246BCD8A1F580118B4286BFDFF889
:108EB0009CB04FF0FF3A02F1547B0023049384E00E
:108EC00018F0010F05D0049BD3E90023FFF7A0F9A8
:108ED0000123049A083209F101094FEA6808049253
:108EE000C9E7EAD0C8F1000818F00F020AD0134B06
:108EF00003EBC20350465946D3E90023FFF7B2FA09
:108F000082468B465FEA2818D7D0B8F11F0F1FDDC5
:108F100000252E460795059522234FF0000A4FF0B5
:108F2000000B236086E700BFADB90B007CBC0B00D3
:108F3000B1B90B0061BC0B00FBA80B00C0BE0B005D
:108F400098BE0B000000F07F0000A07CFFFFEF7FC9
:108F500018F0100318BF6A23DFF8AC93049350464F
:108F60005946002318F0010F04D0D9E90023FFF778
:108F70004FF901235FEA680809F10809F2D10BB142
:108F800082468B46049BC3B1CBF30A52C2F16B03FA
:108F9000002B594611DD1F2B40F32481342BDEBFFB
:108FA000C2F14B024FF0FF3303FA02F24FF0000A16
:108FB000CCBF4FF05C7B02EA010B0022002350463D
:108FC0005946FFF78DFB0028A2D1079B0093089913
:108FD0002B463A46204601F00DF8079000283FF452
:108FE0001FAF059B9E1B069B002BB4BF334600237F
:108FF0000C93069B002523EAE37312932E46079BEE
:109000002046596800F04EFF059000283FF40CAF51
:10901000079B1A69023203F10C0192000C30FFF732
:109020001EFC4BEC10AB1AAA19A9204601F028FB34
:109030004BEC18AB189000283FF4F6AE0121204607
:1090400001F072F8064600283FF4EEAE199B049931
:10905000002BABBF0C9A129A129FDDF83090ACBF78
:1090600003EB0209D71A1A9AA3EB01089044A14B0B
:1090700008F1FF389845C2F1360280F2C780A3EBB1
:1090800008031F2BA2EB03024FF0010100F3B18094
:1090900001FA03F30D930023089309EB0208049BE4
:1090A000C14517441F444B46A8BF4346BB42A8BF17
:1090B0003B46002BC2BFA8EB0308FF1AA9EB03092C
:1090C0000C9B002B17DD31461A46204601F0ECF8C8
:1090D000064600283FF4A8AE0146189A204601F043
:1090E00039F80B9000283FF49FAE1899204600F005
:1090F00019FF0B9B1893B8F1000F00F38C80069BAF
:10910000002B08DD129A0599204601F0CDF8059054
:1091100000283FF489AE002F08DD05993A46204625
:1091200001F01CF9059000283FF47EAEB9F1000F64
:1091300008DD31464A46204601F010F9064600286F
:109140003FF472AE059A1899204601F093F905464E
:1091500000283FF469AEC3680B930023C360314617
:1091600001F06CF9002860DA0B9B53EA0A0340F027
:109170008280CBF31303002B7DD12BF000431B0D1A
:109180001B05B3F1D66F76D96B6913B92B69012B27
:1091900071DD29460122204601F0E0F831460546FE
:1091A00001F04CF9002866DD0499534A5B4600291A
:1091B00000F0818002EA0B01B1F1D66F7BDCB1F1E6
:1091C0005C7F7FF7A9AE4D4B504659460022FFF712
:1091D0001FF80B46034308BF222382468B4608BF75
:1091E00023602BE64FF0FF3202FA03F303EA0A0A88
:1091F000E3E6C8F17F4808F57F0808F57B4808F1E9
:10920000E20801FA08F308930D9146E7002308935A
:1092100001230D9341E718994246204601F09EF83C
:10922000189000287FF46BAFFEE55F466ED10B9A75
:10923000CBF3130342B3324A934228D1049B5146E5
:10924000EBB12D4B3B40B3F1D46F4FF0FF3219D847
:109250001B0DC3F16B0302FA03F3994217D1294B9B
:109260009F4202D101313FF4DFAD234B3B4003F578
:10927000801B4FF0000A049B002BA4D1DEE54FF0C9
:10928000FF33EAE71346E8E753EA0A038CD0089B6A
:10929000DBB13B42EFD00B9B049A50465946C3B119
:1092A000FFF75BFB02460B4651EC180BFEF7FAFD8D
:1092B00082468B46DFE71340A3F580136FEA135B0A
:1092C0006FEA0B5B4FF0FF3AD5E70D9B13EA0A0FED
:1092D000E0E7FFF742FB02460B4651EC180BFEF7A6
:1092E000DFFD0022002382468B46FFF7F9F90028B4
:1092F000C1D011E602FCFFFF0000F07F00005039F2
:10930000FFFF0F00FFFFEF7F90BC0B0031462846A8
:1093100001F012FA59EC108B10EE100A00224FF0F7
:1093200080434946FFF7F0F900287AD00B9B002BC9
:109330004AD0954B0022CDE90823DFF84C924FF03C
:109340000008924B3B400D930D9A914B9A4240F08E
:10935000B080DDE90801A7F1547B4BEC10ABCDE9FF
:10936000080101F011F9DDE9080153EC102BFEF7BB
:109370004FFF52465B46FEF795FD0B468349854AF3
:1093800019409142824660D918EE903A02F1547227
:10939000934204D118EE103A01333FF445ADDFF8A3
:1093A00000B24FF0FF3A1899204600F0BBFD059936
:1093B000204600F0B7FD3146204600F0B3FD2946B7
:1093C000204600F0AFFD1AE6BAF1000F1BD1CBF337
:1093D0001303F3B96C4B002240464946FFF78AF964
:1093E000D0B9404649466C4B0022FEF711FF80463B
:1093F000894609F10043CDF850801593DDE9142327
:10940000CDE908239DE7BAF1010F02D1002F3FF407
:1094100083AD624B00228EE7DFF87C914FF00008AD
:10942000E7E75D4B404649460022FEF7F1FE0B9B05
:109430008046894633B901F100430E900F93DDE970
:109440000E23DDE7CDE90E89F9E703F1547B049B98
:10945000002BA8D12BF000430D9A1B0D1B059A423F
:10946000A1D14046494601F005FAFEF7A3FE0246A7
:109470000B4640464946FEF713FD0B9ACBF3130308
:1094800043EA0A0313438046894655D036A3D3E9FD
:109490000023FFF72FF900287FF4D0AC34A3D3E9E1
:1094A000002340464946FFF743F900283FF47BAFCD
:1094B000C4E4049B33B30D9BB3F1D46F22D82EA325
:1094C000D3E9002340464946FFF71EF9A0B14946BB
:1094D0004046FFF775F9012838BF0120FEF71EFE50
:1094E0000B9B8046894623BB01F1004310901193EA
:1094F000DDE91023CDE90823099B0D9A03F1D6631A
:109500009B1A0993DDE90801B0EE480AF0EE680AFB
:10951000CDE9080101F038F8DDE9080153EC102B22
:10952000FEF776FE53EC182BFEF7BCFC82468B460A
:109530008DE7CDE91089DBE711A3D3E90023FFF71D
:10954000D9F8B2E700230A93139A179B1360FFF729
:109550006BBA652A3FF45FAB452A3FF45CAB01234D
:10956000FFF794BBAFF300809535A094FFFFDF3F7A
:1095700035E5AF350000E03F0000C0FFFFFFDF41F1
:109580009535A094FFFFCF3F0000F03F0000F07F33
:109590000000E07FFFFF9F7C0000E03F0000F0BF85
:1095A000FFFFEF7F0A4601460248034B0068FFF7C2
:1095B000F3B900BF10E403207CE40320012B2DE964
:1095C000F04701D0242B06D9FDF7A8F81623036035
:1095D0000020BDE8F087DFF8E4C00D462E4615F800
:1095E000014B14F80C7017F00807F7D12D2C32D16D
:1095F0002C780127B51C002B5BD0102B09D1302C07
:1096000007D12C7804F0DF04582C4DD16C7810234E
:10961000023507F1004808F1FF384FF0000CB8FBA5
:10962000F3F9664603FB198AA4F1300EBEF1090F67
:1096300016D87446A34224DDBCF1000F1EDBB145F1
:109640001CD301D1A24519DB06FB03464FF0010CE8
:1096500015F8014BE8E72B2C04BF2C78B51CCAE7A2
:10966000A4F1410EBEF1190F01D8373CE2E7A4F195
:10967000610EBEF1190F04D8573CDBE74FF0FF3CF9
:10968000E6E7BCF1000F05DA22230360464642B943
:1096900030469EE707B17642002AF9D0BCF1000FB0
:1096A00000D0691E1160F3E73024002BB1D10823EC
:1096B000AFE7302CA5D00A23ABE700BFB9BC0B0045
:1096C00013460A46014602480068FFF777BF00BF0D
:1096D00010E403202DE9F843DFF8B8800646D8F8F7
:1096E00000001F460D46914600F0C6FB254B1C6846
:1096F00034B9254C1C60254B13B11B68C4F8883065
:1097000063681F2B07DDD8F8000000F0B7FB4FF0AF
:10971000FF30BDE8F8834EB3D4F8880088B91C4BFD
:1097200023B9D8F8000000F0A8FBF0E74FF48470EC
:10973000FCF7C4FF0028F4D00023C0E94033C4F88C
:109740008800636840F8239001229A4000EB83016F
:10975000D0F800311343C0F80031022EC1F88070F8
:1097600002BFD0F804311343C0F804316368D8F85D
:1097700000005A1C0233626044F8235000F07EFB64
:109780000020C6E7E8E703205CE7032000000000B4
:10979000BD660B0074E403200369B3EB611F2DE980
:1097A000F0434FEA611200F1140445DD11F01F018E
:1097B00004EB830604EB82050CD100F11007294667
:1097C000B14234D39B1A9B00EA1E964238BF002355
:1097D000234415E054F82270C1F12008CF4005F170
:1097E000040EA1467645F44615D89A1A9200043A1A
:1097F0000135AE4238BF0022A318A75007B1043389
:109800001A1BA3424FEAA20208BF0023026108BF4D
:109810004361BDE8F083DCF800C00CFA08FC4CEAB8
:10982000070749F8047B5EF8047BCF40DAE751F87C
:1098300004CB47F804CFC3E72346E1E7A0F13003A8
:10984000092B02D82038C0B27047A0F16103052B64
:1098500001D84738F7E7A0F14103052B01D8273895
:10986000F1E70020704700002DE9F04F2DED028B4D
:1098700089B008EE100A0493B44B1B680193184694
:109880008B469046FFF73AF8019BDBF80020034433
:10989000824613F8013C0593931CC2F1FF2202F5A6
:1098A0007F02FE32D1181F4613F8010B00913028B9
:1098B000F8D0FFF7C3FF044600283AD10199524679
:1098C0003846FFF723F80546002868D117F80A0044
:1098D00007EB0A06FFF7B2FF002862D0334618787C
:1098E00030281F4603F10103F9D0FFF7A7FF01233A
:1098F000B0FA80F46409354600933A4616460132C0
:109900003078FFF79BFF0028F8D101995246304686
:10991000FEF7FCFF80B94DB906EB0A052A4616464C
:1099200001323078FFF78AFF0028F8D1AD1BAD0077
:1099300004E000242546E0E7002DF7D1337803F05A
:10994000DF03502B3BD173782B2B2CD02D2B2ED01B
:10995000711C4FF000090878FFF770FF431EDBB25F
:10996000182B2CD8A0F1100211F8010FFFF766FF99
:10997000431EDBB2182B1DD9B9F1000F00D05242A3
:109980001544CBF80010E4B1009B002B14BF002756
:109990000627384609B0BDEC028BBDE8F08F3E4685
:1099A00025460124CAE74FF00009B11CD3E74FF068
:1099B0000109FAE70A2303FB0202103AD4E7314611
:1099C000DFE7F31B013B2146072B0BDC18EE100AE7
:1099D00000F068FA044640B95D4B0246DE215D485E
:1099E000FCF7A4FE01315B10EEE700F114094FF023
:1099F000000BCAF10103CDF80890CDF800B0069332
:109A0000B74240D30298009B40F8043BA0EB09000A
:109A1000801046012061184600F036FB301AD8F855
:109A20000060B04263DD871B3946204600F0DAFE55
:109A30008246A8B17B1E591103F01F0259F821106C
:109A40004FF0010A0AFA02F20A4209D0534505DD35
:109A5000B91E204600F0C6FE002845D14FF0020A8C
:109A600039462046FFF798FE3D44D8F80830AB420F
:109A70004CDA18EE100A214600F054FA149A00232A
:109A80001360A32785E7731E059A039316F8013C1C
:109A9000934219D0BBF1200F07D1029B009A43F8E3
:109AA000042B0293002300939B4616F8010CFFF74A
:109AB000C5FE009B00F00F0000FA0BF0034300937B
:109AC0000BF1040B039B0DE0039B069A1344BB426E
:109AD000E0D31846019907935246FEF717FF079BFC
